:020000040800F2
:10000000000400201116000811180008111800083B
:10001000111800081118000811180008111800081C
:1000200011180008111800081118000841180008DC
:1000300011180008111800081118000841190008CB
:1000400011180008111800081118000811180008EC
:1000500011180008111800081118000811180008DC
:10006000111800081118000811180008512B000879
:10007000912B0008D12B0008112C0008512C0008EE
:10008000912C0008D12C0008111800081118000844
:10009000111800081118000811180008111800089C
:1000A000111800081118000811180008111800088C
:1000B000111800081118000811180008111800087C
:1000C000111800081118000811180008111800086C
:1000D00011180008813800081118000811180008CC
:1000E000111800081118000811180008111800084C
:1000F000111800081118000811180008112D000827
:10010000111800081118000811180008111800082B
:10011000111800081118000811180008111800081B
:10012000512D0008912D0008D12D0008112E000836
:10013000512E0008111800081118000811180008A5
:1001400011180008111800081118000811180008EB
:10015000912E0008D12E0008112F00081118000858
:1001600011180008111800081118000811180008CB
:1001700011180008111800081118000811180008BB
:08018000111800081118000815
:100190002DE9F04F2DED0C8B93B002F039FB01F0FF
:1001A00057FC3C483C493D4FDFF82C8102F0E0FB16
:1001B00038483B493B4A03F0D3FC4FF40062C4F299
:1001C000020200241021384B1183384800944FF468
:1001D000DC71402202F01CF82046C4F2020020210B
:1001E00040F29A2203F064F92046C4F20200402152
:1001F00040F29A2203F05CF92046C4F2020080210A
:1002000040F29A2203F054F92046C4F2020004217D
:10021000012203F04DF92046C4F20200022101221E
:1002200003F046F92146224A224804F091FC214875
:1002300004F046FB142002F03BF89FED1F9A009457
:100240001E481F4B4FF4A76140229FED1EBADFED01
:100250001EDA9FED1EDADFED1ECA9FED1ECA01F009
:10026000D7FFA146069407940594264641F27C5395
:10027000C2F20003F8681D78441D7DBBFB689C42F8
:1002800003D2F8680534A042FBD8204602F028F8D3
:10029000ECE700BF1013002000080020FC11002034
:1002A000607D0008687D000871410008801500200D
:1002B000DC120020781C00200000C84240170020FB
:1002C000C141000832A5C24A21FEC14A5059274700
:1002D000ADC92647885CDB3BE81300200021C4F24F
:1002E000020102220A83CC4809A903F029FF0998D8
:1002F0004845059003D0079B0796F51A06950025FB
:10030000C64804F07DFA0F222B46C448C449009524
:1003100004F056FA98F811C098F80FB098F80DA0AC
:1003200098F810E098F80B9098F80E1098F80C20B8
:1003300098F80A30BB48CCF3010CCEF3030ECBF394
:10034000020BCAF3020A0CEB8C0C0BEB8B0BC1F308
:100350000301C2F303020EEB4C0CC9F301090AEBD3
:100360008A0A01EB4B0E5FFA8CFCC3F3030302EB2A
:100370004A0A2946802209EB89095FFA8EFB03EBC2
:100380004909CDF810C007F00BF88022A648A5490E
:100390002B4603F06DFEDDF810C0A348A3495FFAB9
:1003A0008AFA5FFA89F962465B46CDF800A0CDF87B
:1003B000049003F0D5FB08222B46984899490092F7
:1003C0000F2204F0FDF980222946964806F0E8FF46
:1003D0008022954893492B4603F04AFED8ED0A6ADD
:1003E00098ED087AD8ED097ABDEEE60AFDEEC70A67
:1003F000BDEEE71A10EE902A11EE103A8DED000ACC
:1004000089488B4903F0ACFB10230F2283488549B0
:1004100000932B4604F0D4F9D8ED051A98ED062A7E
:10042000B8EEE18AF8EEC28A88EE09AAC8EE89AA77
:10043000D8ED072A1AEE900A1AEE101AF8EEE29A90
:1004400004F0AEFC2AEEAA3A0AEE0A3AC9EE899AFC
:10045000B1EEC38A0BEE900AB4EE488AF1EE10FAC0
:1004600040F0CB8029EE8B4A68EE2D3A14EE100A4C
:1004700013EE901A04F094FC054604F051FC0021A0
:10048000C4F2400104F094FC08EE900A284604F0FF
:100490000FFC0021C4F2400104F08AFC05EE100AB2
:1004A000F0EE484A45EE6C4A48EE8D9A14EE901AEA
:1004B00019EE900A04F074FC0AEE900A04F030FC85
:1004C00005EE900A25EEA56AF7EE006A46EE4C6A44
:1004D000B1EEE6AAB4EE4AAAF1EE10FA40F094802A
:1004E0001AEE900A04F0E4FB07EE900A8BEE0A7A0B
:1004F000002180224B48DDF81490751C88EE270AF5
:10050000DFED4C8A30EE478A06F04AFF8022002356
:100510004548444903F0ACFDDFED479A6AEEA80A6E
:1005200080EEA91A11EE100A00F0F6F96BEEA81A87
:10053000824681EEA92A8B4612EE100A00F0ECF9F1
:10054000CDE9000118EE100A00F0E6F95246CDE9B7
:1005500002015B463448394903F002FB18220023AC
:100560002E48304900920F2204F02AF900218022FF
:100570002C4806F015FF802200232B48294903F060
:1005800077FDD8F8300000F0C7F902460B46264840
:100590002B4903F0E5FA202200232048214900924C
:1005A0000F2204F00DF9002180221E4806F0F8FE0B
:1005B0001D481C498022002303F05AFD3246069E46
:1005C00019482049731C03F0CBFA38231549134806
:1005D00000930F22002304F0F3F8104804F070F9A0
:1005E000002041F27C51C4F20200C2F2000100225C
:1005F0002E4602250A70458340E613EE100A04F0E9
:100600006FFD08EE100A2DE716EE900A04F068FD63
:100610000AEE100A64E700BFD4120020781C002004
:10062000847D00086814002068150020A87D00085B
:10063000C47D000800003443DB0F4940DC7D000826
:10064000F47D0008007E0008AFF30080AFF3008067
:1006500081F0004102E000BF83F0004330B54FEA73
:1006600041044FEA430594EA050F08BF90EA020FE0
:100670001FBF54EA000C55EA020C7FEA645C7FEA73
:10068000655C00F0E2804FEA5454D4EB5555B8BF96
:100690006D420CDD2C4480EA020281EA030382EA07
:1006A000000083EA010180EA020281EA0303362D99
:1006B00088BF30BD11F0004F4FEA01314FF4801C6C
:1006C0004CEA113102D0404261EB410113F0004F7E
:1006D0004FEA03334CEA133302D0524263EB430335
:1006E00094EA050F00F0A780A4F10104D5F1200ED3
:1006F0000DDB02FA0EFC22FA05F2801841F100012E
:1007000003FA0EF2801843FA05F359410EE0A5F101
:1007100020050EF1200E012A03FA0EFC28BF4CF032
:10072000020C43FA05F3C01851EBE37101F00045E8
:1007300007D54FF0000EDCF1000C7EEB00006EEBF5
:100740000101B1F5801F1BD3B1F5001F0CD349087F
:100750005FEA30004FEA3C0C04F101044FEA4452D6
:1007600012F5800F80F09A80BCF1004F08BF5FEA5D
:10077000500C50F1000041EB045141EA050130BD3D
:100780005FEA4C0C404141EB010111F4801FA4F1E0
:100790000104E9D191F0000F04BF01460020B1FA35
:1007A00081F308BF2033A3F10B03B3F120020CDA6D
:1007B0000C3208DD02F1140CC2F10C0201FA0CF04B
:1007C00021FA02F10CE002F11402D8BFC2F1200CB0
:1007D00001FA02F120FA0CFCDCBF41EA0C01904066
:1007E000E41AA2BF01EB0451294330BD6FEA0404AF
:1007F0001F3C1CDA0C340EDC04F11404C4F120029A
:1008000020FA04F001FA02F340EA030021FA04F3AB
:1008100045EA030130BDC4F10C04C4F1200220FA02
:1008200002F001FA04F340EA0300294630BD21FA40
:1008300004F0294630BD94F0000F83F4801306BF06
:1008400081F480110134013D4EE77FEA645C18BFFA
:100850007FEA655C29D094EA050F08BF90EA020F91
:1008600005D054EA000C04BF1946104630BD91EA89
:10087000030F1EBF0021002030BD5FEA545C05D18C
:100880004000494128BF41F0004130BD14F58004CB
:100890003CBF01F5801130BD01F0004545F0FE413F
:1008A00041F470014FF0000030BD7FEA645C1ABF74
:1008B000194610467FEA655C1CBF0B46024650EAAB
:1008C000013406BF52EA033591EA030F41F40021D7
:1008D00030BD00BF90F0000F04BF0021704730B55D
:1008E0004FF4806404F132044FF000054FF0000132
:1008F00050E700BF90F0000F04BF0021704730B5F3
:100900004FF4806404F1320410F0004548BF4042C7
:100910004FF000013EE700BF42004FEAE2014FEA1C
:1009200031014FEA02701FBF12F07F4393F07F4FF7
:1009300081F06051704792F0000F14BF93F07F4F29
:10094000704730B54FF4607401F0004521F000416C
:1009500020E700BF50EA010208BF704730B54FF0F2
:1009600000050AE050EA010208BF704730B511F0F7
:10097000004502D5404261EB41014FF4806404F12F
:1009800032045FEA915C3FF4DCAE4FF003025FEAB1
:10099000DC0C18BF03325FEADC0C18BF033202EB39
:1009A000DC02C2F1200300FA03FC20FA02F001FA93
:1009B00003FE40EA0E0021FA02F11444C1E600BF32
:1009C00070B54FF0FF0C4CF4E06C1CEA11541DBFE5
:1009D0001CEA135594EA0C0F95EA0C0F00F0DEF8B0
:1009E0002C4481EA030621EA4C5123EA4C5350EA95
:1009F000013518BF52EA033541F4801143F48013E6
:100A000038D0A0FB02CE4FF00005E1FB02E506F076
:100A10000042E0FB03E54FF00006E1FB03569CF0CB
:100A2000000F18BF4EF0010EA4F1FF04B6F5007FD1
:100A300064F5407404D25FEA4E0E6D4146EB060643
:100A400042EAC62141EA55514FEAC52040EA5E50CC
:100A50004FEACE2EB4F1FD0C88BFBCF5E06F1ED876
:100A6000BEF1004F08BF5FEA500E50F1000041EBAD
:100A7000045170BD06F0004646EA010140EA02005A
:100A800081EA0301B4EB5C04C2BFD4EB0C0541EA7C
:100A9000045170BD41F480114FF0000E013C00F391
:100AA000AB8014F1360FDEBF002001F0004170BDB5
:100AB000C4F10004203C35DA0C341BDC04F11404CE
:100AC000C4F1200500FA05F320FA04F001FA05F25A
:100AD00040EA020001F0004221F0004110EBD37027
:100AE00021FA04F642EB06015EEA430E08BF20EA53
:100AF000D37070BDC4F10C04C4F1200500FA04F3F6
:100B000020FA05F001FA04F240EA020001F0004187
:100B100010EBD37041F100015EEA430E08BF20EAFA
:100B2000D37070BDC4F1200500FA05F24EEA020E42
:100B300020FA04F301FA05F243EA020321FA04F071
:100B400001F0004121FA04F220EA020000EBD37028
:100B50005EEA430E08BF20EAD37070BD94F0000F28
:100B60000FD101F00046400041EB010111F4801F5C
:100B700008BF013CF7D041EA060195F0000F18BF0D
:100B8000704703F00046520043EB030313F4801F49
:100B900008BF013DF7D043EA0603704794EA0C0F03
:100BA0000CEA135518BF95EA0C0F0CD050EA410619
:100BB00018BF52EA4306D1D181EA030101F0004196
:100BC0004FF0000070BD50EA410606BF10461946BE
:100BD00052EA430619D094EA0C0F02D150EA0136CA
:100BE00013D195EA0C0F05D152EA03361CBF10460B
:100BF00019460AD181EA030101F0004141F0FE41AA
:100C000041F470014FF0000070BD41F0FE4141F42D
:100C1000780170BD70B54FF0FF0C4CF4E06C1CEA2D
:100C200011541DBF1CEA135594EA0C0F95EA0C0FE2
:100C300000F0A7F8A4EB050481EA030E52EA03359D
:100C40004FEA013100F088804FEA03334FF08055BE
:100C500045EA131343EA12634FEA022245EA1115EB
:100C600045EA10654FEA00260EF000419D4208BF9C
:100C7000964244F1FD0404F5407402D25B084FEA49
:100C80003202B61A65EB03055B084FEA32024FF4F5
:100C900080104FF4002CB6EB020E75EB030E22BF52
:100CA000B61A754640EA0C005B084FEA3202B6EB12
:100CB000020E75EB030E22BFB61A754640EA5C00C1
:100CC0005B084FEA3202B6EB020E75EB030E22BF51
:100CD000B61A754640EA9C005B084FEA3202B6EB52
:100CE000020E75EB030E22BFB61A754640EADC0011
:100CF00055EA060E18D04FEA051545EA16754FEA73
:100D000006164FEAC30343EA52734FEAC2025FEA90
:100D10001C1CC0D111F4801F0BD141EA00014FF01F
:100D200000004FF0004CB6E711F4801F04BF0143F0
:100D30000020B4F1FD0C88BFBCF5E06F3FF6AFAE0C
:100D4000B5EB030C04BFB6EB020C5FEA500C50F19C
:100D5000000041EB045170BD0EF0004E4EEA11311F
:100D600014EB5C04C2BFD4EB0C0541EA045170BD26
:100D700041F480114FF0000E013C90E645EA060E6A
:100D80008DE60CEA135594EA0C0F08BF95EA0C0F98
:100D90003FF43BAF94EA0C0F0AD150EA01347FF4E0
:100DA00034AF95EA0C0F7FF425AF104619462CE7B7
:100DB00095EA0C0F06D152EA03353FF4FDAE10461A
:100DC000194622E750EA410618BF52EA43067FF46B
:100DD000C5AE50EA41047FF40DAF52EA43057FF4FB
:100DE000EBAE12E700000000000000000000000071
:100DF0004FF0FF3C06E000BF4FF0010C02E000BFE7
:100E00004FF0010C4DF804CD4FEA410C7FEA6C5CC9
:100E10004FEA430C18BF7FEA6C5C1BD001B050EA6C
:100E2000410C0CBF52EA430C91EA030F02BF90EA57
:100E3000020F0020704710F1000F91EA030F58BF16
:100E4000994208BF90422CBFD8176FEAE37040F078
:100E5000010070474FEA410C7FEA6C5C02D150EA16
:100E6000013C07D14FEA430C7FEA6C5CD6D152EAD1
:100E7000033CD3D05DF8040B704700BF8446104696
:100E800062468C461946634600E000BF01B5FFF795
:100E9000B7FF002848BF10F1000F01BD4DF808ED65
:100EA000FFF7F4FF0CBF012000205DF808FB00BF36
:100EB0004DF808EDFFF7EAFF34BF012000205DF890
:100EC00008FB00BF4DF808EDFFF7E0FF94BF0120DD
:100ED00000205DF808FB00BF4DF808EDFFF7CEFFDE
:100EE00094BF012000205DF808FB00BF4DF808ED1D
:100EF000FFF7C4FF34BF012000205DF808FB00BFEE
:100F00004FEA410212F5001215D211D56FF4787331
:100F1000B3EB625212D94FEAC12343F0004343EAD4
:100F2000505311F0004F23FA02F018BF40427047AF
:100F30004FF00000704750EA013005D111F0004039
:100F400008BF6FF0004070474FF00000704700BFCF
:100F50004FEA4102B2F1E04324BFB3F5001CDCF1DB
:100F6000FE5C0DD901F0004C4FEAC0024CEA507013
:100F7000B2F1004F40EB830008BF20F00100704742
:100F800011F0804F21D113F13872BCBF01F0004045
:100F9000704741F480114FEA5252C2F11802C2F177
:100FA000200C10FA0CF320FA02F018BF40F00100F8
:100FB0004FEAC1234FEAD32303FA0CFC40EA0C00AA
:100FC00023FA02F34FEA4303CCE77FEA625307D1E7
:100FD00050EA01331EBF4FF0FE4040F4400070471E
:100FE00001F0004040F0FE4040F40000704700BFB8
:100FF00080F0004002E000BF81F0004142001FBFCE
:101000005FEA410392EA030F7FEA226C7FEA236CD6
:101010006AD04FEA1262D2EB1363C1BFD2184140CB
:1010200048404140B8BF5B42192B88BF704710F061
:10103000004F40F4000020F07F4018BF404211F004
:10104000004F41F4000121F07F4118BF494292EA6C
:10105000030F3FD0A2F1010241FA03FC10EB0C0098
:10106000C3F1200301FA03F100F0004302D5494225
:1010700060EB4000B0F5000F13D3B0F1807F06D3D2
:1010800040084FEA310102F10102FE2A51D2B1F1CA
:10109000004F40EBC25008BF20F0010040EA0300BF
:1010A0007047490040EB000010F4000FA2F101026C
:1010B000EDD1B0FA80FCACF1080CB2EB0C0200FAF6
:1010C0000CF0AABF00EBC25052421843BCBFD04044
:1010D0001843704792F0000F81F4000106BF80F4BE
:1010E00000000132013BB5E74FEA41037FEA226C81
:1010F00018BF7FEA236C21D092EA030F04D092F04C
:10110000000F08BF0846704790EA010F1CBF00207F
:10111000704712F07F4F04D1400028BF40F00040DC
:10112000704712F100723CBF00F50000704700F0FC
:10113000004343F0FE4040F4000070477FEA226223
:1011400016BF08467FEA23630146420206BF5FEAF4
:10115000412390EA010F40F4800070474FF00003F4
:1011600004E000BF10F0004348BF40425FEA000CBB
:1011700008BF704743F0964301464FF000001CE063
:1011800050EA010208BF70474FF000030AE000BFB9
:1011900050EA010208BF704711F0004302D54042F7
:1011A00061EB41015FEA010C02BF84460146002069
:1011B00043F0B64308BFA3F18053A3F50003BCFA84
:1011C0008CF2083AA3EBC25310DB01FA02FC634431
:1011D00000FA02FCC2F12002BCF1004F20FA02F238
:1011E00043EB020008BF20F00100704702F120022B
:1011F00001FA02FCC2F1200250EA4C0021FA02F28C
:1012000043EB020008BF20EADC70704700000000DA
:101210004FF0FF0C1CEAD0521EBF1CEAD15392EAD9
:101220000C0F93EA0C0F6FD01A4480EA010C4002B5
:1012300018BF5FEA41211ED04FF0006343EA50100F
:1012400043EA5111A0FB01310CF00040B1F5000F51
:101250003EBF490041EAD3715B0040EA010062F100
:101260007F02FD2A1DD8B3F1004F40EBC25008BFEA
:1012700020F00100704790F0000F0CF0004C08BF08
:1012800049024CEA502040EA51207F3AC2BFD2F1D5
:10129000FF0340EAC250704740F400004FF00003E3
:1012A000013A5DDC12F1190FDCBF00F0004070471D
:1012B000C2F10002410021FA02F1C2F1200200FA5B
:1012C00002FC5FEA310040F1000053EA4C0308BF22
:1012D00020EADC70704792F0000F00F0004C02BF73
:1012E000400010F4000F013AF9D040EA0C0093F0EE
:1012F000000F01F0004C02BF490011F4000F013B48
:10130000F9D041EA0C018FE70CEAD15392EA0C0FB5
:1013100018BF93EA0C0F0AD030F0004C18BF31F020
:10132000004CD8D180EA010000F00040704790F0F6
:10133000000F17BF90F0004F084691F0000F91F09A
:10134000004F14D092EA0C0F01D142020FD193EA60
:101350000C0F03D14B0218BF084608D180EA0100E8
:1013600000F0004040F0FE4040F40000704740F0C4
:10137000FE4040F4400070474FF0FF0C1CEAD05292
:101380001EBF1CEAD15392EA0C0F93EA0C0F69D0EE
:10139000A2EB030280EA010C49024FEA402037D059
:1013A0004FF0805343EA111143EA10130CF0004050
:1013B0008B4238BF5B0042F17D024FF4000C8B4240
:1013C00024BF5B1A40EA0C00B3EB510F24BFA3EB20
:1013D000510340EA5C00B3EB910F24BFA3EB9103F0
:1013E00040EA9C00B3EBD10F24BFA3EBD10340EA4A
:1013F000DC001B0118BF5FEA1C1CE0D1FD2A3FF690
:1014000050AF8B4240EBC25008BF20F00100704744
:101410000CF0004C4CEA50207F32C2BFD2F1FF03E7
:1014200040EAC250704740F400004FF00003013A18
:1014300037E792F0000F00F0004C02BF400010F4BC
:10144000000F013AF9D040EA0C0093F0000F01F0D0
:10145000004C02BF490011F4000F013BF9D041EAF2
:101460000C0195E70CEAD15392EA0C0F08D1420225
:101470007FF47DAF93EA0C0F7FF470AF084676E7F8
:1014800093EA0C0F04D14B023FF44CAF08466EE7D1
:1014900030F0004C18BF31F0004CCAD130F000429F
:1014A0007FF45CAF31F000437FF43CAF5FE700BFF7
:1014B0004FF0FF3C06E000BF4FF0010C02E000BF20
:1014C0004FF0010C4DF804CD4FEA40024FEA4103C2
:1014D0007FEA226C18BF7FEA236C11D001B052EA78
:1014E000530C18BF90EA010F58BFB2EB030088BF3E
:1014F000C81738BF6FEAE17018BF40F001007047AD
:101500007FEA226C02D15FEA402C05D17FEA236C8E
:10151000E4D15FEA412CE1D05DF8040B704700BFD5
:10152000844608466146FFE70FB5FFF7C9FF00286C
:1015300048BF10F1000F0FBD4DF808EDFFF7F4FFA5
:101540000CBF012000205DF808FB00BF4DF808ED3E
:10155000FFF7EAFF34BF012000205DF808FB00BF61
:101560004DF808EDFFF7E0FF94BF012000205DF883
:1015700008FB00BF4DF808EDFFF7D2FF94BF012034
:1015800000205DF808FB00BF4DF808EDFFF7C8FF2D
:1015900034BF012000205DF808FB00BF0000000000
:1015A0004FEA4002B2F1FE4F0FD34FF09E03B3EB70
:1015B00012620DD94FEA002343F0004310F0004FB0
:1015C00023FA02F018BF404270474FF00000704706
:1015D00012F1610F01D1420205D110F0004008BFA5
:1015E0006FF0004070474FF00000704700000000AF
:1015F000704700BFAFF30080AFF30080AFF300800F
:10160000FEE700BFAFF30080AFF30080AFF30080D0
:1016100072B6704C84F309884EF63472CEF2000232
:101620004EF68853CEF200034FF040411160186827
:1016300040F470051D600022E1EE102A4EF63C7366
:10164000CEF2000306211A6081F31488BFF36F8F76
:101650006148624DA84218D2EA1C051D531B23F0B5
:101660000302034610184FF0553183421960C2F34C
:1016700080020AD01AB185422B46296005D01D1D73
:101680005960083383426960F9D15548A04218D2A5
:101690005449041D0A1B22F00305034628184FF085
:1016A000553183421960C5F380020AD01AB18442D1
:1016B0002346216005D01D1D5960083383426960AF
:1016C000F9D102F005FA4849484881421BD2C61CAC
:1016D0000C1D321B464822F00302161D0568042328
:1016E000B3420D60C2F380020DD022B145680823D9
:1016F000B342256007D01A1D1D5884585D50083329
:10170000B3428C50F7D13B483B49884217D2CB1C9F
:10171000041D1A1B22F003050346281800218342EA
:101720001960C5F380020AD01AB1844223462160B1
:1017300005D01D1D5960083383426960F9D1FFF758
:1017400057FF2E4D2E498D421DD2CC1C2E1DA71B9E
:10175000B808471C01242A6800EA04089047BC42E4
:1017600011D0B8F1000F05D0022433689847BC426D
:10177000354608D0696888470234A8682E1D80471E
:101780000835BC42F6D1FEF703FD1E4D1E4A9542B8
:101790001DD2D41C2E1DA71BBB085F1C0124296869
:1017A00003EA04088847BC4211D0B8F1000F05D005
:1017B000022430688047BC42354608D06A689047AA
:1017C0000234AB682E1D98470835BC42F6D1FFF7AE
:1017D00017FF00BF000800200000002000040020C8
:1017E0000004002003080020000800203C0C00201A
:1017F000B8A70008400C0020803C002088010008A9
:10180000880100088801000888010008AFF3008003
:10181000FEE700BFAFF30080AFF30080AFF30080BE
:1018200072B6FEE7AFF30080AFF30080AFF3008045
:1018300000F09EF900F05CFC00F0B2F900DF00BFA0
:10184000EFF309824EF63073D2F8CC10CEF20003DB
:101850006832596098686830986082F3098800237C
:1018600083F31188704700BFAFF30080AFF30080AF
:1018700008B54FF46D43CEF200034FF44072C0F24E
:10188000FA520021996007201021DA6000F0B8F8C0
:101890000A204FF4007100F0B3F80B208021BDE85E
:1018A000084000F0ADB800BFAFF30080AFF3008098
:1018B000202383F311884FF46D43CEF20003586860
:1018C00010F4006325D0EFF30983A3F1680282F3DB
:1018D000098816494FF080708A6943F84C0C92F8D9
:1018E0002300096892688968B0B1914294BF0022D0
:1018F0000122BAB10E4A43F8502CF1EE10FA4EF61E
:101900003072CEF20002516841F001005966506019
:10191000704783F311887047914234BF002201223F
:10192000002AE7D1034843F8500CE8E70C120020E6
:10193000311800083C180008AFF30080AFF30080B6
:1019400008B500F085F9202383F3118800F048F9E9
:1019500000F0BEF800F05CF9002383F3118800F07A
:1019600097F9BDE80840FFF7A3BF00BFAFF30080C1
:101970002DE9F04F2DED108AC1F80CD0D0F80CD025
:10198000BDEC108ABDE8F08FAFF30080AFF30080AC
:1019900008B500F005F9002383F311882846A04715
:1019A00000F0DEFC08BD00BFAFF30080AFF30080A5
:1019B000F0B44FF461438408CEF20003C03400F069
:1019C000030553F82470ED00FF26420906FA05F6D8
:1019D00027EA060601FA05F500F01F0002F160078C
:1019E000012101FA00F02E4343F8246043F8270058
:1019F00043F82200F0BC7047AFF30080AFF30080E3
:101A000082084FF46D43CEF20003063200F003006B
:101A100030B4C00053F82250FF2404FA00F425EA41
:101A2000040401FA00F10C4343F8224030BC704733
:101A3000024B034A98698261FEE700BF0C12002046
:101A4000D0740008AFF30080AFF30080AFF30080E4
:101A500030B583B0FFF70CFF00F00AFA00F0A0F9F0
:101A600000F07EFE00F0C4FE00F062F940F6404057
:101A70004021C2F2000000F04BFB41F20C2440F286
:101A80000043C2F20003C2F200040125C36180F8E2
:101A90002050A06100F054F8002383F3118862B64F
:101AA00047F25061A269C0F60001916140F6904092
:101AB000009341F631234FF4AC712A46C0F600037F
:101AC000C2F2000000F0A4FB03B030BDAFF3008011
:101AD000F8B500F0FDF8164B986990F8232012B184
:101AE000511E80F82310446A124D631C4362E8685B
:101AF0002C68421CAC42EA6018D0A768013FA7607E
:101B0000A7B92168E6684D60E760296000F080F8B9
:101B1000002383F311882069B047202383F31188C1
:101B200000F05EF82C68A368002BEAD0F8BD00BF77
:101B30000C120020FC110020AFF30080AFF30080F6
:101B4000054B186810B905490A6822B10448054BCD
:101B50001860FFF765BE7047E80D0020F411002003
:101B6000F0740008F8110020AFF30080AFF300809C
:101B7000074B186810B5074C08B9216821B1064A0F
:101B8000064B1A60FFF74CFE0120206010BD00BF1D
:101B9000E80D0020F4110020F8740008F81100206E
:101BA000084B186810B5084C28B92168002902DDD7
:101BB0000020206010BD054A054B1A60FFF730FE7B
:101BC000F6E700BFE80D0020F411002000750008C2
:101BD000F8110020AFF30080AFF30080AFF3008076
:101BE000074B1868002810B5064C01DD216821B1AB
:101BF000054A064B1A60FFF713FE0120206010BD56
:101C0000E80D0020F411002008750008F8110020EC
:101C1000084B1868002810B5074C05DD216800291D
:101C200002DD0020206010BD044A054B1A60FFF75A
:101C3000F7FDF6E7E80D0020F4110020107500080C
:101C4000F8110020AFF30080AFF30080AFF3008005
:101C500010B5202383F31188094C2168002902DB89
:101C6000084A106828B10849084B1960FFF7D8FDE9
:101C700021684A1C2260002383F3118810BD00BF35
:101C8000E80D0020F411002018750008F81100205C
:101C900010B5202383F31188094C2168002902DD47
:101CA000084A106828B10849084B1960FFF7B8FDC9
:101CB00021684A1E2260002383F3118810BD00BFF3
:101CC000E80D0020F411002020750008F811002014
:101CD000064B1868002804DB05490A68002A00DD65
:101CE00070470448044B1860FFF79ABDE80D0020C8
:101CF000F411002028750008F8110020AFF30080CF
:101D0000064B186820B906490A68002A00DD7047AA
:101D10000448054B1860FFF783BD00BFE80D0020A5
:101D2000F411002030750008F8110020AFF3008096
:101D300040F6EC53C2F200031A46402142F8081B59
:101D40005A607047AFF30080AFF30080AFF30080BC
:101D50000C490D4A10B4CC680C49536889691C6061
:101D60005960846A9C6003F1100190F8204002F5EC
:101D7000816081421C732ABF02F1080351605360E5
:101D800010BC7047FC110020EC0D00200C1200204C
:101D900041F2F813C2F200031860FFF741BD00BF23
:101DA00041F2FC13C2F200034FF0FF3200205B60EF
:101DB0001B609A60D8607047AFF30080AFF300807B
:101DC000F8B505460C4616461F46FFF781FFCDB114
:101DD000C6B1BCB10D492F610B68EE609A689442A0
:101DE00004D91B68A41A9A68A242FAD358682B60D7
:101DF0008B42686005605D60AC6002D099680C1B26
:101E00009C60F8BD0248FFF7C3FFE3E7FC11002028
:101E100040750008AFF30080AFF30080AFF300809F
:101E200010B50446FFF754FF84B1E36893B120680E
:101E30000A4A904203D08168A368CA188260616828
:101E40000860206800234160E36010BD0448FFF78C
:101E50009FFFEAE70348FFF79BFFE8E7FC1100203C
:101E60005075000860750008AFF30080AFF3008084
:101E700041F20C23C2F2000300225B601B609A60F7
:101E80005B611B61704700BFAFF30080AFF3008060
:101E900010B50446FFF71CFF94F820308BB10E2BD1
:101EA0000FD00022A168094884F8202000688368C8
:101EB0008B42FBD24168206061600C604460204628
:101EC00010BD0348FFF764FFEBE700BF0C120020D2
:101ED00080750008AFF30080AFF30080AFF300809F
:101EE00010B52023044683F31188FFF779FE94F898
:101EF00020300D2B11D8DFE803F016101007100B5F
:101F0000101010101010100BA06A8268511C816014
:101F100094E80C001A60206843604FF0FF33A3621E
:101F20002046FFF7B5FFFFF773FE002383F3118808
:101F300010BD00BFAFF30080AFF30080AFF30080AF
:101F400070B5114C0646FFF7DBFE2368A5691A68D9
:101F500085F8206014210120546083F8200085F862
:101F6000231028462260A361FFF7F2FEEB69ADF172
:101F70006402934202D90548FFF70AFFA069294687
:101F8000BDE87040FFF7F4BC0C1200209475000807
:101F900070B50C4686B00646FFF7B2FE631C12D041
:101FA0000B4D0C4AAB69214601A8FFF709FF3046EB
:101FB000FFF7C6FF049B13B101A8FFF731FFA86923
:101FC000806A06B070BD3046FFF7BAFF004DF6E7F5
:101FD0000C120020E11E0008AFF30080AFF3008078
:101FE00070B5144D04460E46FFF78AFEA869A26834
:101FF0008368A6629A4213D9FFF74AFF0121064679
:1020000084F82010AC61FFF7A3FEF069ADF1640223
:1020100090420AD820463146BDE87040FFF7A8BC80
:102020002046BDE87040FFF733BF0348FFF7B0FE1E
:10203000F0E700BF0C12002094750008AFF3008099
:1020400038B5104C2368A5691A6801211420546022
:1020500083F8201085F8230028462260A361FFF74B
:1020600017FF2846FFF774FEEB69ADF16402934257
:1020700002D90548FFF78CFEA0692946BDE8384023
:10208000FFF776BC0C12002094750008AFF30080B7
:1020900070B5144E3368B5691A68AC685660012192
:1020A000002083F820103260B36185F8200000E042
:1020B0001B689A68A242FBD859682B606960284661
:1020C0005D600D60FFF744FEEB69ADF16400834293
:1020D00002D90548FFF75CFEB0692946BDE87040AB
:1020E000FFF746BC0C12002094750008AFF3008087
:1020F000044B986990F8231009B1FFF7C9BFFFF7A7
:102100009FBF00BF0C120020AFF30080AFF3008030
:102110002DE9F00141F20C24C2F2000400226569AD
:102120004164046100F13006816000F12C0C00F183
:102130004C0745614FF0020860610121142480F8CA
:10214000208080F8212080F823400264C26342622C
:1021500080F8221082612861C0F82CC046630663B3
:10216000C761BDE8F0017047AFF30080AFF30080B6
:102170002DE9F04704460D4617469846FFF7A8FD9F
:1021800014B1B5F59C7F36D21E48FFF701FEA5F1CC
:10219000640161181C4E089BD6F814C0E1604B64C2
:1021A0001A4BC1F840800B660221002504F1300271
:1021B00004F12C0A04F14C0984F8201014230121A5
:1021C0002661A760C4F814C02046746184F82150C9
:1021D00084F8233067642564E563656284F822101F
:1021E000A561CCF81040C4F82CA062632263C4F847
:1021F0001C90BDE8F0877F2FC6D8B8F1000FC6D17C
:10220000C2E700BFB07500080C1200209119000849
:102210002DE9F04F9B4683B080468946924600F1F7
:102220004C0300F1010400F14D07FF26254604F898
:10223000016C05F8016B6C1CBC42F7D108EB090777
:10224000BB4215D21846552600F8016BD9437A18BF
:10225000B84202F001030BD01BB100F8016BB84289
:1022600006D0054605F8016B4670681CB842F8D1E7
:10227000202383F31188FFF77BFC0C9C5B465246BE
:10228000494600944046FFF773FF00210446FFF7DC
:10229000A7FEFFF785FC002383F31188204603B0D7
:1022A000BDE8F08FAFF30080AFF30080AFF30080A4
:1022B00010B5044610B90948FFF76AFD202383F3DF
:1022C0001188FFF755FC21460620FFF761FEFFF756
:1022D00067FC002383F3118810BD00BFF075000870
:1022E00010B52023044683F31188FFF741FC064B09
:1022F000D968611A02D00620FFF74AFEFFF750FCAA
:10230000002383F3118810BDFC110020AFF300807F
:1023100038B5104B9C692546A06255F82C0FA84291
:1023200006D00168E162FFF7B3FDE06AA842F8D188
:1023300094F82100830704D1636922691A61216935
:102340004B610E20FFF7FCFD0348BDE83840FFF766
:102350001FBD00BF0C12002000760008AFF3008004
:1023600010B52023044683F31188FFF701FC2046B3
:10237000BDE81040FFF7CCBFAFF30080AFF30080A3
:1023800010B5044620B1002364602460A36010BD32
:102390000148FFF7FDFCF6E770760008AFF3008018
:1023A00038B504460D46FFF793FCC4B1E26B94F8D0
:1023B000203045EA0201082BE1630CD0092B00D044
:1023C00038BDA06A01408842FAD12046FFF760FD7F
:1023D0000023836238BDA26A1142F6D138BD02489B
:1023E000FFF7D6FCE2E700BF4C770008AFF30080B0
:1023F00070B505460E46FFF76BFC65B12C68A5422B
:1024000008D0201D0BC83343E360FFF7C9FF2468E1
:10241000A542F6D170BD0248FFF7BAFCEEE700BF57
:1024200070770008AFF30080AFF30080AFF3008057
:1024300010B4024659B1084B9B69986244680D205C
:1024400083E814005360236010BCFFF7A1BD4FF078
:10245000FF3010BC704700BF0C120020AFF30080AB
:1024600010B4C361019B40608A180024006084603E
:1024700041618161C1600261036210BC704700BFAD
:1024800038B504460D46FFF723FC6369A269A068CE
:1024900093421AD0411CA16003F8015B2269636179
:1024A00093420BD22068A0420DD0016821604C609D
:1024B000FFF7EEFC00228262104638BD2068E36818
:1024C000A0426361F1D1002038BD0028E2D06FF056
:1024D000030038BDAFF30080AFF30080AFF300809E
:1024E000F8B504460E46202383F31188FFF740FB1E
:1024F000E3690BB120469847A5682046314655B997
:10250000FFF796FF071EF7DAFFF74AFB2B4683F328
:1025100011883846F8BDA0692269013DA56010F810
:10252000017B9042A06124BFE068A061FFF738FB07
:10253000002383F311883846F8BD00BFAFF3008055
:102540002DE9F0470446154688461E46C769002A0D
:102550003AD0202383F31188FFF70AFB08F1010A20
:102560004FF00009A8440FB12046B847A56820469F
:1025700031465DB9FFF75CFF0028F7D0FFF710FB8D
:102580002B4683F311884846BDE8F087A369013DD7
:10259000A56013F8012B0AF8012C2069A36183427E
:1025A00024BFE368A361FFF7FBFA002383F31188DC
:1025B000C24509F10109E6D0202383F31188FFF712
:1025C000D7FA0AF1010ACEE70148FFF7E1FBC0E7BD
:1025D000B0770008AFF30080AFF30080AFF3008066
:1025E00010B4C361019B40608C180060826041613F
:1025F0008161C1600461036210BC7047AFF3008069
:102600002DE9F041202304468846164683F31188BD
:10261000FFF7AEFAA568204631465DB9FFF708FF1F
:10262000071EF7DAFFF7BCFA2B4683F3118838460A
:10263000BDE8F0816369013DA56003F8018B226963
:102640006361934228BFE368E16928BF636109B110
:1026500020468847FFF7A4FA002383F311881F461A
:102660003846BDE8F08100BFAFF30080AFF30080D3
:1026700038B50446FFF72CFBA3696269A0689A424B
:1026800016D0411CA16013F8015B2269A36193423B
:102690000BD22068A04206D0016821604C60FFF791
:1026A000F7FB00228262284638BDE368A361F0E7A9
:1026B0000028E6D06FF0020038BD00BFAFF3008005
:1026C0002DE9F0470446164688469A46D0F81C90F5
:1026D000002A39D0202383F31188FFF749FA002715
:1026E000A56820466B1E0DB3A360656918F8011B31
:1026F00005F8011B22696561954224BFE2686261A9
:10270000B9F1000F00D0C847FFF74AFA002383F35E
:1027100011880137013E14D0202383F31188FFF77D
:1027200027FAA56820466B1E002DDDD120465146B4
:10273000FFF77EFE0028D3D0FFF732FA2B4683F353
:1027400011883846BDE8F0870148FFF721FBC1E753
:10275000C4770008AFF30080AFF30080AFF30080D0
:1027600041F22C2241F228234CF200010648C2F229
:102770000002C2F20003C2F2010120F0070021F0C2
:102780000701106019607047873C0020AFF300809C
:1027900010B50446FFF79CFA074A08491368096810
:1027A000E01D20F00700C91A88429ABF181810606F
:1027B0000023184610BD00BF2C1200202812002054
:1027C00010B52023044683F31188FFF7D1F9204682
:1027D000FFF7DEFF0446FFF7E3F9002383F31188D8
:1027E000204610BDAFF30080AFF30080AFF3008050
:1027F00041F23023C2F2000342F2C1710022C0F65E
:10280000000103F1100019609A60DA60FFF7B8BDAB
:1028100008B500F09DFC47F63040C0F6000000F01F
:102820006FFD00F075F800F0F3F800F009F8BDE86E
:10283000084001F055B900BFAFF30080AFF300804E
:1028400000F09EBEAFF30080AFF30080AFF30080D6
:1028500038B504460D4678B171B1202383F3118851
:10286000FFF786F92046294600F0B2FEFFF798F9F7
:10287000002383F3118838BD0148FFF789FAECE79C
:10288000F0770008AFF30080AFF30080AFF3008073
:102890000C30FFF755BE00BFAFF30080AFF30080F0
:1028A0000C304FF0FF33FFF74BBE00BFAFF300809B
:1028B0003030FFF705BF00BFAFF30080AFF30080FB
:1028C00030304FF0FF33FFF7FBBE00BFAFF30080A7
:1028D0000C30FFF705BE00BFAFF30080AFF3008000
:1028E0000C304FF0FF31FFF7FBBD00BFAFF30080AE
:1028F0003030FFF785BE00BFAFF30080AFF300803C
:1029000030304FF0FF32FFF77BBE00BFAFF30080E7
:1029100001F06EB8AFF30080AFF30080AFF300803A
:1029200070B547F680030546C0F60003044645F837
:10293000043B82B0656001250B46164604F1540144
:102940004022257200F10C000094FFF789FD0094ED
:1029500004F1300004F1940140223346FFF740FEB9
:1029600002B070BDAFF30080AFF30080AFF3008022
:1029700038B504460D46B8B1202383F31188FFF71C
:10298000F7F8237A581E012802D90948FFF700FA00
:102990002046294601F044F802212172FFF700F990
:1029A000002383F3118838BD0248FFF7F1F9E3E70C
:1029B0002C78000820780008AFF30080AFF3008087
:1029C00038B504460D46FFF783F9D4B163693BB1CE
:1029D00004F10C002946FFF753FD00280BDB38BD3E
:1029E000201D0421FFF704FD04F10C002946FFF728
:1029F00047FD0028F3DA201D8021BDE83840FFF7AD
:102A0000F7BC0248FFF7C4F9E0E700BF58780008B8
:102A100000F04EBEAFF30080AFF30080AFF3008054
:102A2000002301220270436083600C30FFF7A8BCD2
:102A300038B504460D46C0B1B9B1202383F31188DF
:102A4000FFF796F82378581E012802D90948FFF7A6
:102A50009FF92046656000F053FE02212170FFF7C8
:102A60009FF8002383F3118838BD0348FFF790F9DE
:102A7000E3E700BFB0780008A0780008AFF300805B
:102A800010B5044698B1202383F31188FFF770F83E
:102A90002378022B02D00848FFF77AF9204600F08D
:102AA00097FEFFF77DF8002383F3118810BD0348DC
:102AB000FFF76EF9E7E700BFEC780008DC78000864
:102AC00010B5044698B1202383F31188FFF750F81E
:102AD0002378022B02D00848FFF75AF9204600F06D
:102AE00087FEFFF75DF8002383F3118810BD0348CC
:102AF000FFF74EF9E7E700BF0C790008FC78000803
:102B000070B504460D46164600B1D1B90E48FFF720
:102B10003FF9202383F31188FFF72AF82378022B4B
:102B200002D00A48FFF734F90323237020462946D0
:102B3000324600F06DFEFFF733F8002383F311886F
:102B400070BD002AE5D1E1E77C79000890790008A2
:102B500010B5FFF77DF84FF4C043C4F202030848F4
:102B6000196802683D2401F03D019C600AB140688B
:102B70009047FFF78DF8BDE81040FEF799BE00BF03
:102B800050120020AFF30080AFF30080AFF300805D
:102B900010B5FFF75DF84FF4C043C4F202030948D3
:102BA000196882688C0904F03D014FF474649C60DC
:102BB0000AB1C0689047FFF76BF8BDE81040FEF718
:102BC00077BE00BF50120020AFF30080AFF300804B
:102BD00010B5FFF73DF84FF4C043C4F202030948B3
:102BE000196802690C0C04F03D014FF474149C60E8
:102BF0000AB140699047FFF74BF8BDE81040FEF777
:102C000057BE00BF50120020AFF30080AFF300802A
:102C100010B5FFF71DF84FF4C043C4F20203094892
:102C2000196882698C0D04F03D014FF074649C605A
:102C30000AB1C0699047FFF72BF8BDE81040FEF7D6
:102C400037BE00BF50120020AFF30080AFF300800A
:102C500010B5FEF7FDFF4FF4C043C4F2020308486D
:102C60005968026A3D2401F03D01DC600AB1406A06
:102C70009047FFF70DF8BDE81040FEF719BE00BF02
:102C800050120020AFF30080AFF30080AFF300805C
:102C900010B5FEF7DDFF4FF4C043C4F2020309484C
:102CA0005968826A8C0904F03D014FF47464DC6059
:102CB0000AB1C06A9047FEF7EBFFBDE81040FEF78F
:102CC000F7BD00BF50120020AFF30080AFF30080CB
:102CD00010B5FEF7BDFF4FF4C043C4F2020309482C
:102CE0005968026B0C0C04F03D014FF47414DC6065
:102CF0000AB1406B9047FEF7CBFFBDE81040FEF7EE
:102D0000D7BD00BF50120020AFF30080AFF30080AA
:102D100010B5FEF79DFF4FF4C043C4F2020309480B
:102D20005968826B8C0D04F03D014FF07464DC60D7
:102D30000AB1C06B9047FEF7ABFFBDE81040FEF74D
:102D4000B7BD00BF50120020AFF30080AFF300808A
:102D500010B5FEF77DFF4FF4C843C4F202030848E4
:102D60001968026C3D2401F03D019C600AB1406C81
:102D70009047FEF78DFFBDE81040FEF799BD00BFFC
:102D800050120020AFF30080AFF30080AFF300805B
:102D900010B5FEF75DFF4FF4C843C4F202030948C3
:102DA0001968826C8C0904F03D014FF474649C60D6
:102DB0000AB1C06C9047FEF76BFFBDE81040FEF70C
:102DC00077BD00BF50120020AFF30080AFF300804A
:102DD00010B5FEF73DFF4FF4C843C4F202030948A3
:102DE0001968026D0C0C04F03D014FF474149C60E2
:102DF0000AB1406D9047FEF74BFFBDE81040FEF76B
:102E000057BD00BF50120020AFF30080AFF3008029
:102E100010B5FEF71DFF4FF4C843C4F20203094882
:102E20001968826D8C0D04F03D014FF074649C6054
:102E30000AB1C06D9047FEF72BFFBDE81040FEF7CA
:102E400037BD00BF50120020AFF30080AFF3008009
:102E500010B5FEF7FDFE4FF4C843C4F20203084864
:102E60005968026E3D2401F03D01DC600AB1406EFC
:102E70009047FEF70DFFBDE81040FEF719BD00BFFB
:102E800050120020AFF30080AFF30080AFF300805A
:102E900010B5FEF7DDFE4FF4C843C4F20203094843
:102EA0005968826E8C0904F03D014FF47464DC6053
:102EB0000AB1C06E9047FEF7EBFEBDE81040FEF78A
:102EC000F7BC00BF50120020AFF30080AFF30080CA
:102ED00010B5FEF7BDFE4FF4C843C4F20203094823
:102EE0005968026F0C0C04F03D014FF47414DC605F
:102EF0000AB1406F9047FEF7CBFEBDE81040FEF7E9
:102F0000D7BC00BF50120020AFF30080AFF30080A9
:102F100010B5FEF79DFE4FF4C843C4F20203094802
:102F20005968826F8C0D04F03D014FF07464DC60D1
:102F30000AB1C06F9047FEF7ABFEBDE81040FEF748
:102F4000B7BC00BF50120020AFF30080AFF3008089
:102F50002DE9F00F41F2D0258AB0C2F2000546F209
:102F600040400295783046F21045C4F20205A0F5C3
:102F700080600495C4F2020046F240450390C4F21A
:102F8000020546F228400695C4F2020046F270455A
:102F90000590C4F2020546F258400195C4F20200C1
:102FA00046F2B8450790C4F2020546F288400995FA
:102FB000C4F20200029D089046F2100B002041F27C
:102FC000502346F2280A46F2400946F2580846F2D3
:102FD000700C46F2880746F2A006C2F20003286091
:102FE000C4F2020B039DCBF80000C4F2020AC4F243
:102FF0000209C4F20208C4F2020CC4F20207C4F2CD
:1030000002061860CAF800009860C9F8000018614C
:10301000C8F800009861CCF8000018623860986227
:10302000306018632860049D98632860059D1864CB
:103030002860069D98642860079D186546F2104434
:1030400028606034019D986530342860C4F2020421
:10305000089D18664FF4C0414FF4C8422860C4F27E
:1030600002019866C4F202022060099C18674FF0C2
:10307000FF35206098678D60CD609560D5600AB09F
:10308000BDE8F00F704700BFAFF30080AFF30080E2
:103090002DE9F041064684B0002848D0294F747AC3
:1030A0003868012505FA04FC1CEA000F3BD1264DC7
:1030B0004CEA000005EBC40810F0FF0F45F834207F
:1030C000C8F80430386007D04FF46053C4F20203EC
:1030D0001C6B44F400171F6310F47F4F1AD134683F
:1030E000276827F01F052560206810F00105FBD137
:1030F000307A73683D2707FA00F0186021232560B5
:10310000636192B1B07A0901FEF752FC284604B01F
:10311000BDE8F0814FF46055C4F20205286B40F41D
:1031200080032B63DBE72846F1E71046EFE707480B
:10313000039102920193FEF72BFE019B029A0399E1
:10314000ACE700BFD012002050120020E07A000847
:103150004FF46053C4F2020370B400224FF0FF3406
:1031600019691C611A6159695C615A611E6A4EF2E3
:10317000100166F080561E62CEF200011A6249F21A
:103180003F054EF6F0505E6A5C62CEF20000072406
:10319000C0F202055A624D608A600C60C4684FF448
:1031A0008051CEF2000144F08074C460086840F0A1
:1031B00001000860186C4FF4E041C4F2000140F0D7
:1031C00080501864086840F480700860196F01F43A
:1031D0004070B0F5007F03D04FF4803119671A6753
:1031E0004FF46053C4F202031A6F120407D4186F2D
:1031F00040F4007119671A6F42F4004018674FF4E9
:10320000E043C4F20003596821F400725A6070BCB4
:10321000FFF79EBEAFF30080AFF30080AFF30080F6
:103220004FF46052C4F202024FF4E043C4F20003D0
:103230004FF0805111644FF4804218461A60436881
:103240005904FCD54FF46050C4F2020001460268F4
:1032500042F00103036008684FF460538207C4F230
:103260000203F8D5196841F480321A6019460868DB
:103270004FF460538003C4F20203F8D55A6F42F052
:10328000010159671846426F4FF460539207C4F228
:103290000203F8D545F20C41C0F24071596018683C
:1032A00040F080721A60194608684FF4605380013C
:1032B000C4F20203F8D598684FF414424FF47051E9
:1032C000C3F60802C4F20201104340F2057298608E
:1032D0000A60996841F002009860996801F00C005A
:1032E0004FF460520828C4F20202F6D1536C43F442
:1032F00080415164506E40F480435366704700BF74
:103300004FF46053C4F202031A6B6FEA52216FEA62
:1033100041221A63196D6FEA51226FEA4221196541
:1033200000234168C4F202034FF48062596081684F
:103330009960C168D96001695961416919628169FF
:10334000596201681960016AC4F202024FF4006315
:103350005160416A9160816AD160C16A5161016BBB
:103360001162416B5162C1691160C4F20203C26B08
:103370005A60016C9960426CDA60816C5961C26C70
:103380001A62016D5962816B4FF440621960816D60
:10339000C4F202024FF480535160C16D9160016E1E
:1033A000D160416E5161816E1162C16E5162416D99
:1033B0001160C4F20203426F5A60816F9960C26F5C
:1033C000DA60D0F880105961D0F884201A62D0F801
:1033D00088105962016F4FF4A0521960D0F8901014
:1033E000C4F202024FF4C0535160D0F894109160BF
:1033F000D0F89810D160D0F89C105161D0F8A0108E
:103400001162D0F8A4105162D0F88C101160D0F87D
:10341000AC10C4F202034FF4E0525960D0F8B0107F
:103420009960D0F8B410D960D0F8B8105961D0F8CC
:10343000BC101962D0F8C0105962D0F8A810C4F2BC
:1034400002021960D0F8C8305360D0F8CC109160F7
:10345000D0F8D030D360D0F8D4105161D0F8D83043
:103460001362D0F8DC105162D0F8C4104FF400534E
:103470001160D0F8E420C4F202035A60D0F8E810DA
:103480009960D0F8EC20DA60D0F8F0105961D0F8EB
:10349000F4201A62D0F8F8105962D0F8E0001860F1
:1034A000704700BFAFF30080AFF30080AFF3008040
:1034B0002DE9F00F002302F00307C2F38006C2F3E8
:1034C000C105C2F341144FF00F09C2F3C3124FF00C
:1034D000010A38E0D0F820B02BEA0C0C4CEA0808BE
:1034E000C0F82080D0F804B00AFA03FC2BEA0C08DC
:1034F00048EA060BC0F804B04FEA430C4FF0030B48
:10350000D0F808800BFA0CFC6FEA0C0C0CEA0808E7
:1035100048EA0508C0F80880D0F80C800CEA0808D2
:1035200048EA0408C0F80C80D0F800800CEA080CC7
:103530004CEA070CC0F800C049081AD07600AD006C
:10354000A400BF00013303F0070C4FEA8C0C11F00C
:10355000010F02FA0CF809FA0CFCEDD0072BB9D9CF
:10356000D0F824B02BEA0C0C4CEA0808C0F82480F0
:10357000B8E7BDE8F00F7047AFF30080AFF300800D
:103580004FF42053C4F200030F4ACA2053211360A2
:1035900058625962DA68D10614D4D86840F08001C4
:1035A000D9601846C2684FF420535206C4F2000393
:1035B000F8D5F921C0F27F0119611961D86820F0AE
:1035C0008002DA60704700BFD4120020AFF30080A1
:1035D00070B40D4B1A68D0688406FCD51669956ADC
:1035E0001369146850684C607204540C5B04621BCD
:1035F0005B0C4FF47A7404FB02F20133B2FBF3F27A
:10360000CA60086070BC7047D4120020AFF300801D
:1036100011F00C0F00D17047FEF702B9AFF3008034
:1036200011F00C0F38B504463DD1606A026813688A
:1036300023F01F0111601568E907FCD4057A216A9F
:1036400043680A683D2000FA05F01860136823F00B
:103650001F0010601368DB07FCD46368087A4A68AF
:103660001B683D2101FA00F11160CBB104202070EC
:10367000204698472278042A12D0202383F3118809
:10368000FEF7AEFAA16829B10022A26008468A625C
:10369000FEF7FEFBFEF7BCFA002383F3118838BD6A
:1036A00002232370E9E7FEF7BBF8BEE7AFF3008023
:1036B00038B541F2D82341F2DC24C2F20004C2F250
:1036C00000034FF6FF7220461A80FFF7A9F9094957
:1036D0004FF4405016224623C4F2010001F12405A4
:1036E000C0F20162C0F20163E06121626562A26220
:1036F000E36238BD907B0008AFF30080AFF3008039
:1037000038B50378012B044627D0C3696068428925
:10371000A06A02F4006189B2B9B1E16A20F4F04014
:1037200021F4F04140F4205041F42051A062E162C4
:1037300042F441720020072118801A8099801A886B
:1037400090B240F04001198038BDE16A20F4F040A9
:1037500021F4F041A062E162EAE7164DA84209D0E7
:10376000626A206AE3691168006803F10C028260F2
:103770008A60CBE7006A104A0A212346FFF788FCDB
:1037800078B9686A0D4A0B4B0A21FFF781FC60B9D2
:103790004FF46050C4F20200426C42F48051416424
:1037A000DEE70748FEF7F4FAEBE70648FEF7F0FA23
:1037B000EEE700BFDC1200202136000811360008B9
:1037C000F07B0008047C0008AFF30080AFF30080BA
:1037D00043681A895868012101FA02F39AB24283B8
:1037E000704700BFAFF30080AFF30080AFF30080FD
:1037F00043681A895868012101FA02F39AB20283D8
:10380000704700BFAFF30080AFF30080AFF30080DC
:10381000F0B4036A476AC66A1C68806A3B6841F272
:103820000C35C2F2000546F48066E56061602060F8
:10383000DA6059601E60226842F001012160186858
:1038400040F001021A60F0BC704700BFAFF3008087
:10385000C26991811389D807FCD5908980B27047DD
:103860004FF48053C4F201039A8990B240F0800172
:1038700099817047AFF30080AFF30080AFF3008011
:103880002DE9F041FEF7E4F9544BD3F8D450AE895A
:103890002C88A988A4B22207B6B28FB259D104F4F9
:1038A000807293B2002B3ED104F0200188B2002830
:1038B0002AD106F0800293B223B104F0800188B2CD
:1038C00000286FD104F04004A4B2BCB1202383F3DC
:1038D0001188FEF785F942481021FEF789FDFEF7B1
:1038E00097F9002383F311884FF6BF703040A88109
:1038F0002A8822F040031904080C2880FEF7C8F932
:10390000BDE8F041FDF7D4BF202383F31188FEF713
:1039100067F93248F9B2FFF753F8FEF779F9002357
:1039200083F31188C5E7202383F31188FEF758F944
:103930002B484FF40071FEF75BFDFEF769F9002399
:1039400083F31188298821F480700204130C2B80E2
:10395000AAE704F008081FFA88F004F00202002821
:1039600014BF4FF080084FF00008E30793B248BF40
:1039700048F020080BB148F0400804F0040188B278
:1039800008B148F48078202383F31188FEF728F9E2
:1039900013484146FEF72CFDFEF73AF9002383F366
:1039A00011887CE7202383F31188FEF719F90D486D
:1039B000FEF75EFE002807DB82B2AA80FEF728F938
:1039C000002383F311887DE708210548FEF710FDE9
:1039D00026F0C00343F04001A981EFE71013002057
:1039E0001413002040130020AFF30080AFF30080D9
:1039F00010B541F21034C2F2000443F661022046D1
:103A00000021C0F60002FEF78BFF4FF48053C4F292
:103A10000103C4F8D43010BDAFF30080AFF30080D1
:103A200038B5037A264C002918BF0C46012B0546F1
:103A30002CD04FF48050D5F8D4302168C4F2010066
:103A4000834233D04FF4A052C4F2010293422DD0EE
:103A50004DF68060C0F28020B0FBF1F18AB21A818D
:103A6000A288E088218942F4045240F0400080B2EC
:103A700041F0010142F02C02188292B289B200207A
:103A800099829A8118801A889B8838BD0D48854292
:103A9000CFD14FF46051C4F2020125204A6C42F0AC
:103AA00010034B64C021FDF783FFC2E74FF43D4094
:103AB000C0F20150B0FBF1F18AB21A81D0E700BF29
:103AC000207C000810130020AFF30080AFF30080CB
:103AD000FFF7A6BBAFF30080AFF30080AFF3008029
:103AE000704700BFAFF30080AFF30080AFF30080FA
:103AF000F0B4002B08BF0B46074600F10B0C00F199
:103B00000A05B1FBF2F602FB161101F13004392C63
:103B1000C8BF01F13704E4B2B3FBF2F328463146E3
:103B200005F80149002BECD1C0EB0C03F943024628
:103B3000F8184318DB070AD507F8014B12F8014FB4
:103B400005E012F8014F7C7012F8014F5F1C3B46F4
:103B500003F8014B8342F4D1F0BC7047AFF300800F
:103B60000EB42DE9F04F2DED028B8CB00DF1180C39
:103B700017ABCDF808C0029A53F8046B0DF1190C7D
:103B8000CDF804C0C2EB0C0C05938046CDF80CC0F8
:103B9000344614F8011B61B1252911D0D8F8006012
:103BA000B368264634464046984714F8011B00295E
:103BB000F2D10CB0BDEC028BBDE8F04F03B0704702
:103BC00073782D2B00F0D08100272E2B00F0C881B8
:103BD000302B00F0C581202526460599002406E0FB
:103BE0000A78043104EB8404337802EB4404A3F133
:103BF0003000C2B20136092AF4D92A2BF0D00020B5
:103C00002E2B05914BD06C2B55D04C2B53D0A3F1C0
:103C1000410119298CBF00210121A3F14402342A5A
:103C200000F29781DFE812F08B0195019501950173
:103C300095018B01950195019501950195018901EA
:103C400095019501950195019501810195019501D8
:103C500070019501950195019501950195019501D9
:103C600095019501950130018B019501EB009501BE
:103C700095018B01950195019501950195018901AA
:103C80009501950195014F009501810195019501DF
:103C900070010A78043100EB800302EB430016F850
:103CA000013BA3F13002D2B2092AF4D92A2BF0D079
:103CB0006C2B0591A9D13178002900F059810B4670
:103CC00001360121A9E7059D47F630592B68C0F65A
:103CD0000009002B18BF9946291D99F8002005916D
:103CE00047F6FF75002808BF2846002A00F06281C9
:103CF00099F80130411E09EB000A09F1010201F0B7
:103D00000100002B77D09245134608D000286DD0D3
:103D100055780132002D6ED09245134666D1C9EB1D
:103D20000A0ACAEB0404202524EAE474002F00F0F8
:103D3000BD80BAF1000F2ADD4F46D8F8000017F811
:103D4000011B8368CA446FEA090E40460AEB0E095C
:103D50009847574509F0010919D0B9F1000F04D06F
:103D6000D8F8002017F8011B0CE0D8F80000B9467D
:103D7000826819F8011B40469047D8F800207978EE
:103D800009F101079368404698475745EDD1002C4B
:103D90003FF4FEAED8F80070631EBA681C46404679
:103DA000294603F001079047002C3FF4F1AE47B1DC
:103DB000D8F8001040468B6829469847013C3FF4EC
:103DC000E7AED8F800002946826840469047D8F808
:103DD0000010013C8B68404629469847013CF0D1D1
:103DE000D6E65578013235B19A4598D058785A1CA4
:103DF000531C0028F5D1C9EB020A20254FE0059A93
:103E0000D01D20F0070101F10803D1E9000105935D
:103E1000FDF79EF808EE100AB5EEC08AF1EE10FA32
:103E200000F1C08006A8FDEEC88A0A22002318EE21
:103E3000901AFFF75DFE81462E2009F8010B18EE5F
:103E4000100AFCF769FD824618EE900A8B46FCF7D3
:103E500051FD02460B4650465946FCF7FDFB58A360
:103E6000D3E90023FCF7ACFDFDF74AF80A2201462E
:103E700042F210734846FFF73BFEDDF808C00DF133
:103E80001809CCEB000A0AE0059DDDF80CA02968B2
:103E90002B1D05938DF8181020250DF11809CAEB7C
:103EA000040424EAE474002F7FF443AF6442002C3E
:103EB0003FF43FAF99F800102D2967D0D8F80010D3
:103EC000E2438B684046294602F0010798470134D7
:103ED0003FF42FAF47B1D8F8001040468A68294612
:103EE000904701343FF425AFD8F800002946836895
:103EF00040469847D8F8001001348A684046294661
:103F000090470134F0D114E71022059B89B1191DA7
:103F10000591196806A80023FFF7EAFDDDF808A05F
:103F20000DF11809CAEB000AB9E70A22059B00291E
:103F3000EDD1181D19680590ECE70822E5E7059B0F
:103F40001A1DB9B119680592002917DB06A80A22C3
:103F5000E1E78DF81830DDF80CA00DF118099EE7A7
:103F600063783025013437E6B41CB37801272CE69A
:103F7000012152E6196805920029E7DA2D208DF813
:103F8000180049420DF119000A22C4E7302D95D1DD
:103F9000D8F800704046BB68984709F101090AF15A
:103FA000FF3A8BE72D228DF81820B1EE488A0DF1EB
:103FB000190038E79246202571E700BFAFF3008073
:103FC00000000000006AF840AFF30080AFF300800B
:103FD000C36882689A4206D04268D154C1684B1CBB
:103FE000C360002070476FF001007047AFF300809E
:103FF0000369C2689A4205D04168CA5C0133036113
:10400000104670476FF00100704700BFAFF30080AB
:1040100038B5044608462369E5686168ED1AAA4286
:1040200038BF15462A46C91803F012F9206942190B
:104030002261284638BD00BFAFF30080AFF3008097
:1040400038B5C36885680446ED1A4068AA4238BF8F
:1040500015462A46C01803F0FBF8E1684A19E260E9
:10406000284638BDAFF30080AFF30080AFF3008087
:1040700010B447F64054C0F60004C3600023046047
:1040800041608260036110BC704700BFAFF30080E5
:1040900091E80C002DE9F00FC3F38056C2F3003510
:1040A0004FEA46094FEA8508C2F30354C3F30151AE
:1040B000A844B144C2F3032CC2F3011604EB840AF2
:1040C0000CEB480CC2F30347C3F30215C3F30234ED
:1040D00001EB810B4FEA8909C2F3423106EB8606F8
:1040E00002F00F0207EB4A07C3F3032803F00F0A9D
:1040F00002EB460605EB85050CF1FF3204EB840468
:104100004FF0000C09EB4B09C3F30343072908BF29
:10411000002164370AEB450508EB44044B44C0F822
:104120001CC04FF0FF3CC0F820C08161C660026136
:104130004761056044608360BDE8F00F704700BFD1
:1041400010B584B000230C466946009301938DF8A6
:1041500008300393FEF77CFB20466946FFF798FF83
:1041600004B010BDAFF30080AFF30080AFF3008068
:1041700038B50F4D0F49AB6993F82120996102F0D2
:104180000400C3B28BB90024C4F20204626982F055
:1041900008016161FA20FEF78BF8A86990F82130D8
:1041A00003F00402D1B20029F0D0002038BD00BFD6
:1041B0000C120020507D0008AFF30080AFF30080A8
:1041C0002DE9F043454D464BAC694648A36183B0A9
:1041D0000021802244F26E2803F0E2F8424E434F61
:1041E000C4F26B2800E0AC6994F8210010F00402DE
:1041F00059D1002402A9C4F202044FF00409A4F822
:1042000018903B4801F8012D4FF0FF330122FEF7D3
:1042100097F90128E7D1A4F81A9033784BBB9DF8A1
:1042200007006E2815D00023C4F2020300245A6947
:104230002C4882F00801596180222146347003F035
:10424000AFF8D0E7032B23D0191F7B29EBD89DF8BB
:1042500007005C1CE2B2802AF8543270C3D138687F
:10426000404524D0002180222048317003F098F886
:10427000B9E7012B0CD0022BE4D19DF807006B2885
:10428000D1D15C1CE2B2802AF8543270ABD1E6E79F
:104290009DF807004228C6D15C1CE2B2802AF8547F
:1042A0003270A0D1DBE7002003B0BDE8F0837A21B3
:1042B000104800F025F8BB888342D3D1BA79802A10
:1042C000D0D1F9790129CDD10B4C0648074902F02C
:1042D000BFFF2278501CC3B22370C3E70C1200202A
:1042E000587D0008E813002038170020E81400204B
:1042F0001C130020EE1400207C150020AFF300807A
:1043000070B44C1EA4B200292AD0621E10F8013BE2
:104310004FF6FF7692B2B24204F00104DDB21BD038
:104320004CB110F8011B013A5B18DBB292B2ED18E8
:10433000B242EDB210D00146407811F8014B1B1982
:10434000DCB22018023AC3B22D1992B253FA85F5A5
:10435000481CB242EDB2EED143EA052070BC704772
:104360000846FBE7AFF30080AFF30080AFF30080B7
:10437000FFF73EBAAFF30080AFF30080AFF30080E9
:104380003F2B10B412DCFF2A10DC541004EBC313D3
:104390009BB2C01812F0010F027A15BF22F00F0273
:1043A00002F00F02114342EA0111017210BC704782
:1043B0002DE9F04F89B047F63064BDF948C001EBF4
:1043C0008101C0F600040CF105050CF1040A675CDC
:1043D00002951FFA8AFA9BB2CDF800A0DDF808A07A
:1043E000039117F0010F1EB20CF1060E14461FFACE
:1043F0008EFE14BF114600210493324663460CF131
:1044000001091FFA8AFA0546CDF81CE00CF10208F2
:104410000CF1030BCDF818A0CDF804C01FFA89F9F0
:10442000FFF7AEFF07F002000FFA89FCC2B2634645
:10443000002A14BF2146002128463246CDF808C084
:104440001FFA88F8FFF79CFF07F004010FFA88F9BC
:10445000CBB2002B14BF21460021284632464B46E2
:10446000CDF814901FFA8BFBFFF78AFF07F00800C6
:104470000FFA8BFBC2B2002A14BF21460021284646
:1044800032465B46FFF77CFF009B07F010010FFAF6
:1044900083FAC8B2002814BF2146002132462846BC
:1044A0005346FFF76DFF069907F020020FFA81F8D7
:1044B000D3B2002B14BF2146002128463246434682
:1044C000FFF75EFF039A079847F63061C0F60001D8
:1044D00007F040070FFA80F98B18FFB2002F14BFC6
:1044E000214600210393284632464B46FFF748FFFA
:1044F000039E04987778DDF804C0411C0EB217F0D3
:10450000010F14BF21460021634628463246FFF7BB
:1045100037FF07F00202D3B2002B14BF214600215F
:1045200028463246029BFFF72BFF07F00400C1B27A
:10453000002914BF2146002128463246059BFFF77B
:104540001FFF07F00802D3B2002B14BF2146002141
:10455000284632465B46FFF713FF07F01000C1B252
:10456000002914BF21460021284632465346FFF752
:1045700007FF07F02002D3B2002B14BF2146002111
:1045800028463246434607F04007FFF7F9FEF8B2E7
:10459000002814BF21460021324628464B46FFF72B
:1045A000EFFE039E0499B778DDF804C08A1C16B2AA
:1045B00017F0010F14BF21460021634628463246FA
:1045C000FFF7DEFE07F00203D8B2002814BF214631
:1045D000002132462846029BFFF7D2FE07F0040175
:1045E000CAB2002A14BF2146002128463246059B44
:1045F000FFF7C6FE07F00803D8B2002814BF214613
:104600000021324628465B46FFF7BAFE07F010014C
:10461000CAB2002A14BF214600212846324653461A
:10462000FFF7AEFE07F02003D8B2002814BF2146E2
:10463000002132462846434607F04007FFF7A0FE18
:10464000F9B2002914BF21460021284632464B46C4
:10465000FFF796FE039E049AF778DDF804C0D31C9A
:104660001EB217F0010F14BF2146002163462846F1
:104670003246FFF785FE07F00200C1B2002914BFE1
:104680002146002128463246029BFFF779FE07F0BB
:104690000402D3B2002B14BF214600212846324623
:1046A000059BFFF76DFE07F00800C1B2002914BF9B
:1046B00021460021284632465B46FFF761FE07F09F
:1046C0001002D3B2002B14BF2146002128463246E7
:1046D0005346FFF755FE07F02000C1B2002914BF72
:1046E0002146002128463246434607F04007FFF79F
:1046F00047FEFAB2002A14BF21460021284632465E
:104700004B46FFF73DFE039E049B3779DDF804C05E
:10471000181D06B217F0010F14BF21460021634691
:1047200028463246FFF72CFE07F00201CAB2002AE3
:1047300014BF2146002128463246029BFFF720FE87
:1047400007F00403D9B22846002914BF21460021EE
:104750003246059BFFF714FE07F00800C2B2002A9C
:1047600014BF21460021284632465B46FFF708FE6B
:1047700007F01003D9B22846002914BF21460021B2
:1047800032465346FFF7FCFD07F02000C2B2002A74
:1047900014BF21460021284632464346FFF7F0FD6C
:1047A00007F04007FBB2002B14BF2146002128462A
:1047B00032464B4609B0BDE8F04FFFF7E1BD00BF00
:1047C0002DE9F0410D4682B00978BDF920800646FA
:1047D00017461C4661B12346CDF8008030463A4664
:1047E000FFF7E6FD15F8011F063424B20029F2D1C7
:1047F00002B0BDE8F08100BFAFF30080AFF30080EE
:10480000083000214FF4005202F0CABDAFF300801F
:1048100003681A8ADB6810B4012404FA02F292B227
:104820005A83406810BCFFF713B800BFAFF3008095
:1048300003681A8ADB6810B4012404FA02F292B207
:104840001A83406810BCFFF703B800BFAFF30080C5
:1048500070B504460D4615211646FFF7D9FF2046D0
:104860002946FFF7E5FF20463146BDE87040FFF7D7
:10487000DFBF00BFAFF30080AFF30080AFF3008075
:1048800070B504460D4675211646FFF7C1FF204658
:104890002946FFF7CDFF20463146BDE87040FFF7BF
:1048A000C7BF00BFAFF30080AFF30080AFF300805D
:1048B0005C21FFF7ADBF00BFAFF30080AFF3008016
:1048C00038B504464068FEF7DBF82368188ADB68D1
:1048D000012505FA00F188B258831C215B2220468D
:1048E000FFF7B6FF002140222046FFF7C9FF204610
:1048F000FFF7DEFF23681A8AD96805FA02F5ADB220
:104900000D8360684FF4005104F10802BDE838409F
:10491000FEF7F6B8AFF30080AFF30080AFF300808E
:1049200038B504460D46A021FFF772FF2046294600
:10493000FFF77EFF20461121BDE83840FFF778BF22
:1049400038B50C46A1210546FFF762FF28462146EF
:10495000BDE83840FFF76CBFAFF30080AFF30080D5
:1049600038B50C46A2210546FFF752FF28462146DE
:10497000BDE83840FFF75CBFAFF30080AFF30080C5
:1049800038B50C46AB210546FFF742FF28462146C5
:10499000BDE83840FFF74CBFAFF30080AFF30080B5
:1049A00038B50C46B1210546FFF732FF28462146AF
:1049B000BDE83840FFF73CBFAFF30080AFF30080A5
:1049C00038B50C46B3210546FFF722FF284621469D
:1049D000BDE83840FFF72CBFAFF30080AFF3008095
:1049E00070B504460D46B4211646FFF711FF204668
:1049F00045F0A001FFF71CFF204646F00501BDE889
:104A00007040FFF715BF00BFAFF30080AFF3008029
:104A100038B50C46B5210546FFF7FAFE2846214673
:104A2000BDE83840FFF704BFAFF30080AFF300806C
:104A300038B50C46B6210546FFF7EAFE2846214662
:104A4000BDE83840FFF7F4BEAFF30080AFF300805D
:104A500038B50C46BB210546FFF7DAFE284621464D
:104A6000BDE83840FFF7E4BEAFF30080AFF300804D
:104A700038B50C46BE210546FFF7CAFE284621463A
:104A8000BDE83840FFF7D4BEAFF30080AFF300803D
:104A900038B50C46C1210546FFF7BAFE2846214627
:104AA000BDE83840FFF7C4BEAFF30080AFF300802D
:104AB00038B50C46C7210546FFF7AAFE2846214611
:104AC000BDE83840FFF7B4BEAFF30080AFF300801D
:104AD00038B50C46CA210546FFF79AFE28462146FE
:104AE000BDE83840FFF7A4BEAFF30080AFF300800D
:104AF00038B504460D46D121FFF78AFE204645F021
:104B00008201FFF795FE20462021BDE83840FFF7DF
:104B10008FBE00BFAFF30080AFF30080AFF3008023
:104B200038B50C46FD210546FFF772FE284644F0D5
:104B30001201BDE83840FFF77BBE00BFAFF3008035
:104B4000B921FFF765BE00BFAFF30080AFF300806F
:104B500038B50446002900F09E800160206862603C
:104B600002894168012505FA02F398B20883216899
:104B70000A8B4B6905FA02F081B219833220FDF7E6
:104B800097FB23681A8B596905FA02F083B24B83AD
:104B90003220FDF78DFB21680A8B4B6905FA02F084
:104BA00081B219833220FDF783FB21686068FDF72D
:104BB0003FFF6068FDF764FF20461221FFF7B0FF5A
:104BC0002046AE21FFF724FE20461C215B22FFF782
:104BD0003FFE3F2220460021FFF752FE2046912152
:104BE000FFF7EEFE20463F21FFF772FF204600212F
:104BF000FFF7B6FE20460021FFF7A2FE2046142153
:104C0000FFF78EFE20460021FFF702FF20462946CF
:104C1000FFF7B6FEFD222046A021FFF7E1FE204669
:104C2000FF21FFF735FF0F212046FFF741FF204608
:104C3000FFF786FF20463221FFF7B2FE2046002113
:104C4000FFF756FF20461F21FFF702FF20460821ED
:104C5000FFF7EEFE20460721FFF70AFF2046A621B8
:104C6000FFF7D6FDAF212046FFF7D2FD6068FDF7C4
:104C700027FF2046FFF7C4FD08494FF4005204F116
:104C8000080002F0E5FA2046FFF71AFE0A20BDE808
:104C90003840FDF70DBB024B03605FE7508300080F
:104CA00030830008AFF30080AFF30080AFF30080E3
:104CB00000B540F6D87320F00042C3F649739A421B
:104CC00083B0014615DDB2F1FF4F03DBFCF794F929
:104CD00003B000BD694600F09BFE00F00302012A0C
:104CE000009801990ED0022A07D082B901F0B0F8DD
:104CF000EEE7002101F0ACF8EAE701F0A9F800F1D5
:104D00000040E5E701F04CFF00F10040E0E7012240
:104D100001F046FFDCE700BF0000000000000000DB
:104D200000B540F6D87320F00042C3F649739A42AA
:104D300083B0014616DDB2F1FF4F03DBFCF75CF9EF
:104D400003B000BD694600F063FE00F003000128D7
:104D500015D002280BD0B8B900980199012201F0B2
:104D60001FFFEDE70021002201F01AFFE8E700989D
:104D70000199012201F014FF00F10040E0E70098E2
:104D8000019901F065F8DBE70098019901F060F8FE
:104D900000F10040D4E700BF000000000000000068
:104DA00000F0EEB90000000000000000000000006C
:104DB0002DE9F041874E8AB007460D4600F088FA8B
:104DC00096F900300133044603D0284602F098F9E2
:104DD00018B920460AB0BDE8F081384602F090F9D3
:104DE0008046002833D128460021FCF7A5FB002887
:104DF000EFD07949CDF82080012338460093019106
:104E0000FBF78AFDCDE902012846FBF785FD00236B
:104E100096F900400022C3F6F073CDE90623631C27
:104E2000CDE904010DD0022C0BD0684601F038FF0B
:104E3000002800F09A80089818B102F001FA089B47
:104E40000360DDE90601FCF783F80446C1E7384654
:104E50000021FCF771FB20B328460021FCF76CFB16
:104E6000002855D05C4A012100243846019208945C
:104E70000091FBF751FDCDE902012846FBF74CFDFF
:104E800096F9004000220023CDE90401CDE9062374
:104E9000002CCAD000230022C3F6F073CDE906230C
:104EA000CFE7204602F0D4F88046002862D02046A2
:104EB0000021FCF741FB00288BD0384602F0C8F8EF
:104EC000002886D0284602F0C3F8002881D0424A44
:104ED000042100243846019208940091FBF71CFD40
:104EE000CDE902012846FBF717FD96F900400022A4
:104EF0000023022CCDE90401CDE9062364D06846E5
:104F000001F0CEFE00285FD00898002899D094E7E1
:104F1000284602F09DF800283FF45BAF28460021A8
:104F2000FCF714FB00283FF454AF2B490123002267
:104F30003846009308920191FBF7EEFCCDE902019F
:104F40002846FBF7E9FC3478CDE904010022002370
:104F5000002C31D0CFF6F073022CCDE906232DD1F1
:104F600002F06EF921230360CEE702F069F92122F5
:104F7000026060E7384602F06BF8002897D02846B8
:104F800002F066F8002892D0204602F0B9F828BB5B
:104F9000114A08900121384601920091FBF7BCFCB0
:104FA000CDE902012846FBF7B7FC3478CDE90401CE
:104FB000002C67D100220023CDE90623684601F0CA
:104FC0006FFE0028A0D1CBE702F03AF9222303605C
:104FD0009AE700BF0C08002050A300083D4ACDF816
:104FE00020800321384601920091FBF795FCCDE922
:104FF00002012846FBF790FC96F90040CDE9040138
:1050000038460021D4B94FF6FF734FF06042C4F226
:10501000EF73CDE90623FCF799FA00283ED196F903
:105020000000022805D0684601F03AFE00287FF40F
:1050300002AF02F005F922230360FCE60023002200
:10504000C7F6F073CDE90623FCF780FA0028E6D016
:105050004FF07C512846FCF7DBF8FBF75DFC04467B
:105060000D4601F025FE02460B4620462946FBF779
:1050700015FF0028D3D100230022CFF6F073CDE92D
:105080000623CCE70020002102460B46FBF7C2FDB9
:10509000022CCDE906013FF463AF8FE74FF07C515E
:1050A0002846FCF7B5F8FBF737FC04460D4601F03F
:1050B000FFFD02460B4620462946FBF7EFFE00287F
:1050C000ADD14FF6FF734FF06042CCF2EF73CDE9F4
:1050D0000623A4E750A30008000000000000000021
:1050E00070B5244C8AB0054600F042FE94F90030B9
:1050F0000133064608D0284602F002F820B12846BF
:105100000021FCF723FA10B930460AB070BD1A4AE4
:10511000012128460026009101920896FBF7FCFB2E
:105120002478CDE90401CDE902017CB900220023F5
:10513000CDE90623684601F0B3FD88B10898A0B90F
:10514000DDE90601FBF704FF0646DDE7002000214C
:1051500002460B46FBF75EFD022CCDE90601E9D1C4
:1051600002F06EF821230360E8E702F069F808997D
:105170000160E5E70C08002060A3000800000000C3
:10518000F8B521F00044B4F1FF4F034617DC20F0DE
:105190000045B5F1FF4F064611DCB1F17E5F42D00C
:1051A0008F1707F0020040EAD37775B9022F35D088
:1051B000032F08D140F6DB73CCF2490303E0184615
:1051C000FBF71CFF03461846F8BDD4B1B4F1FF4FFE
:1051D0002DD0B5F1FF4F14D02C1BE4153C2C18DC5E
:1051E000002952DB1846FCF7C7F801F029FF01F04F
:1051F000F7FD012F46D0022F35D0002F25D10346D1
:10520000E1E7002E40F6DB731CDBC3F6C9731846DA
:10521000F8BD40F6DB70C3F6C970EAE740F6DB7311
:10522000C4F24903CFE7BDE8F84001F0D9BDB5F1BC
:10523000FF4F2FD0022FF1D0032FBBD0012F34D03E
:105240000023C0E7CBF6C973BDE74BF62E51C3F27E
:10525000BB31FBF7D3FE40F6DB71C4F24901FBF72B
:10526000CBFE0346AFE74BF62E51C3F2BB31FBF743
:10527000C5FE014640F6DB70C4F24900FBF7BCFEF8
:105280000346A0E700F100439DE714F13C0FA9DAC3
:105290000020AEE7022F13D0032F0CD0012F40F6D1
:1052A000DB7305D0C3F649738DE74FF000438AE7FF
:1052B000CBF6497387E74CF6E433CCF2160382E76A
:1052C0004CF6E433C4F216037DE700BF0000000093
:1052D0002DE9F04F31F0004987B00C460D460746E6
:1052E00011D020F0004ABAF1FF4F804605DD544846
:1052F00007B0BDE8F04F01F033BFB9F1FF4F08DD53
:10530000BAF17E5FF3D14FF07E54204607B0BDE87E
:10531000F08F002854DB0026B9F1FF4F49D0B9F1D6
:105320007E5F64D0B5F1804F38463ED0B5F17C5FEA
:105330001FD001F085FEBAF1FF4F014621D0BAF12E
:10534000000F1ED0BAF17E5F1BD04FEAD87808F16B
:10535000FF3856EA08015FD0B9F19A4F72DD4FF677
:10536000F771C3F67F718A4513DC002D19DB002429
:10537000CBE7B8F1000FDCDB07B0BDE8F04F00F081
:10538000F7BC002D50DB0846B8F1000F3ADB0446AD
:10539000BBE70723C3F680739A4540F3E982002DEB
:1053A000E5DD4FF2CA20C7F249100146FBF730FF96
:1053B000EDE7BAF17E5FA6D01FDD002DA5DAD6E7B6
:1053C000B9F1974F17DAB9F17E5F09DB4FEAE9537C
:1053D000C3F1960049FA00F202FA00F1494501D002
:1053E00000269CE702F00106C6F1020697E7002DB1
:1053F0001FDB3C4689E702268EE7002DB7DA04F171
:10540000004482E7AAF17E5156EA010A05D0012E36
:10541000BDD100F1004478E738460146FBF7ECFDCA
:105420000146FBF7A9FFB2E74FF07E50FBF7A4FF60
:10543000AAE74FF07E503946FBF79EFF044664E72B
:10544000C0750008BAF5000F80F222824FF0974134
:10545000FBF7DEFE6FF0170782462AF07F434CF21F
:10546000714223F400014FEAEA50C0F21C027F3877
:10547000914200EB070C41F07E5740F306824BF25D
:10548000D630C0F25D00814240F3B88200220CF1B8
:10549000010CA7F5000705920599A948CDF804C0AD
:1054A00050F821300392194638460493FBF7A4FDC7
:1054B000394681460498FBF7A1FD01464FF07E5026
:1054C000FBF75AFF0246114648460292FBF7A0FE40
:1054D000BB467F10039A47F00051824601F58023B6
:1054E00020F47F60D31820F00F0719463846039345
:1054F000FBF78EFE01464846FBF77EFD0399814689
:1055000008460499FBF778FD01465846FBF774FD01
:105510003946FBF77DFE01464846FBF76DFD029AD2
:105520001146FBF775FE514683465046FBF770FE69
:1055300001468146FBF76CFE4FF242110346C3F66B
:10554000536148460293FBF763FE43F25521C3F6CD
:105550006C61FBF753FD4946FBF75AFE4AF20531F1
:10556000C3F68B61FBF74AFD4946FBF751FE4AF64D
:10557000AB21C3F6AA61FBF741FD4946FBF748FEA4
:1055800046F6B751C3F6DB61FBF738FD4946FBF73A
:105590003FFE49F69A11C3F61971FBF72FFD01463C
:1055A0000298FBF735FE394681465046FBF726FD4B
:1055B0005946FBF72DFE4946FBF720FD394604907E
:1055C0003846FBF725FE0021C4F240010390FBF7AB
:1055D00015FD0499FBF712FD20F47F6121F00F09FE
:1055E00049463846FBF714FE494607465846FBF73E
:1055F0000FFE00218346C4F240014846FBF7FCFC45
:10560000039B1946FBF7F8FC01460498FBF7F4FCF2
:105610005146FBF7FDFD01465846FBF7EFFC83467C
:1056200059463846FBF7EAFC20F47F6C2CF00F0A51
:105630004FF46051C3F676715046FBF7E9FD4CF22A
:10564000A0318146C3F29D615046FBF7E1FD39462A
:10565000024650460292FBF7CFFC01465846FBF744
:10566000CBFC43F64F01C3F67671FBF7D1FD014643
:105670000298FBF7C3FC059F324951F82710FBF74E
:10568000BDFCDDF804B007465846FBF76BFD2E4B1A
:10569000059A049053F822B039464846FBF7AEFC11
:1056A0005946FBF7ABFC0499FBF7A8FC20F47F6C90
:1056B0002CF00F0A04995046FBF79EFC5946FBF765
:1056C0009BFC4946FBF798FC01463846FBF794FCE7
:1056D000013E56EA0806814640F0D4800027CBF60A
:1056E000807725F47F6525F00F0529462046FBF7D6
:1056F00083FC5146FBF78CFD494606462046FBF7E6
:1057000087FD01463046FBF779FC29468046504626
:10571000FBF77EFD014604464046FBF76FFC002880
:1057200006460546A246014620F0004940F30181A5
:10573000B9F1864F00F3BF8000F0AC8006E000BFF7
:1057400090A3000880A3000870A30008B9F17C5F53
:1057500000F3C0804FF0000BD94621F47F6525F09F
:105760000F044FF4E4412046C3F63171FBF750FDBE
:10577000514605462046FBF73FFC01464046FBF7F5
:105780003BFC47F21821C3F63171FBF741FD4BF6A4
:105790008C610646C3F2BF512046FBF739FD014636
:1057A0003046FBF72BFC064631462846FBF726FC25
:1057B00029460446FBF720FC01463046FBF71CFC5B
:1057C000214606462046FBF723FD4BF64C31C3F23B
:1057D00031310546FBF71CFD4EF60E21C3F2DD51BB
:1057E000FBF70AFC2946FBF713FD4BF25531C3F6D4
:1057F0008A01FBF703FC2946FBF70AFD40F66131FD
:10580000C3F63631FBF7F8FB2946FBF701FD4AF6F4
:10581000AB21C3F62A61FBF7F1FB2946FBF7F8FC45
:1058200001462046FBF7E8FB054629462046FBF7E4
:10583000EFFC4FF0804180462846FBF7DDFB014638
:105840004046FBF799FD314605462046FBF7E0FC54
:105850003146FBF7D3FB01462846FBF7CDFB21463B
:10586000FBF7CAFB01464FF07E50FBF7C5FB8344B4
:10587000BBF5000FC0F2C78059463846FBF7C8FC9D
:10588000044642E54FF07E572BE70022059203E6DF
:105890000027E2E54AF63C21C3F238314046FBF7E7
:1058A000ADFB214682463046FBF7A6FB014650463B
:1058B000FBF76AFE70B14FF2CA21C7F249113846B0
:1058C000FBF7A6FC4FF2CA21C7F24911FBF7A0FC77
:1058D00004461AE54FEAE953A3F17E004FF40006AF
:1058E00046FA00F14B19C3F3C75223F07F4E4FF62F
:1058F000FF76A2F17F002EF4000CC0F27F064CF47C
:10590000000AC2F1960246FA00F64AFA02F923EAC0
:105910000601002D2046B8BFC9F10009FBF76CFB5A
:10592000824651464046FBF769FB4FEAC95B014698
:1059300013E70022C4F2163291450ADC7FF406AF69
:105940002146FBF759FB01464046FBF709FE0028BC
:10595000C0D044F26021C0F6A2513846FBF758FC93
:1059600044F26021C0F6A251FBF752FC0446CCE49D
:105970004FF07E51FBF740FB4FF42A41C3F6B8715C
:105980000746FBF745FC4AF270518146C3F2EC61D1
:105990003846FBF73DFC394682463846FBF738FC73
:1059A0004FF07A5183463846FBF732FC01464AF6FF
:1059B000AB20C3F6AA60FBF71FFB3946FBF728FCB8
:1059C00001464FF07C50FBF717FB01465846FBF7AA
:1059D0001FFC4AF63B21C3F6B871FBF719FC0146E0
:1059E0005046FBF709FB074639464846FBF706FBDE
:1059F00020F47F6020F00F0A504662E601234FF446
:105A00000012059348E5494601F0B2FB014634E730
:105A10002DE9F04F40F6D87320F00044C3F64973E7
:105A20009C4289B006460D4640F38B804CF6E3312C
:105A3000C4F216018C4226DC4FF478610028C3F6CC
:105A4000C97140F32C81FBF7D7FA4FF47D6124F044
:105A50000F04C3F6C9718C42064600F0818044F2FF
:105A60004341C3F23571FBF7C7FA0146286030465F
:105A7000FBF7C2FA44F24341C3F23571FBF7BCFABB
:105A80000127686061E04FF47867C4F24937BC428F
:105A900040F38180B4F1FF4F5BDA4FEAE459A9F19A
:105AA0008609A4EBC9542046FBF77AFDFBF75AFBA5
:105AB0000246014620460592FBF79EFA4FF08741C9
:105AC000FBF7A6FB0746FBF76BFDFBF74BFB01461D
:105AD000044638460694FBF78FFA4FF08741FBF7F0
